{
  "_format": "hh-sol-artifact-1",
  "contractName": "Marketplace",
  "sourceName": "contracts/Marketplace.sol",
  "abi": [
    {
      "inputs": [],
      "stateMutability": "nonpayable",
      "type": "constructor"
    },
    {
      "inputs": [],
      "name": "ItemHasOwner",
      "type": "error"
    },
    {
      "inputs": [],
      "name": "getContractOwner",
      "outputs": [
        {
          "internalType": "address",
          "name": "",
          "type": "address"
        }
      ],
      "stateMutability": "view",
      "type": "function"
    },
    {
      "inputs": [
        {
          "internalType": "bytes32",
          "name": "_itemHash",
          "type": "bytes32"
        }
      ],
      "name": "getItemByHash",
      "outputs": [
        {
          "components": [
            {
              "internalType": "uint256",
              "name": "id",
              "type": "uint256"
            },
            {
              "internalType": "uint256",
              "name": "price",
              "type": "uint256"
            },
            {
              "internalType": "bytes32",
              "name": "proof",
              "type": "bytes32"
            },
            {
              "internalType": "address",
              "name": "owner",
              "type": "address"
            },
            {
              "internalType": "enum Marketplace.State",
              "name": "state",
              "type": "uint8"
            }
          ],
          "internalType": "struct Marketplace.Item",
          "name": "",
          "type": "tuple"
        }
      ],
      "stateMutability": "view",
      "type": "function"
    },
    {
      "inputs": [],
      "name": "getItemCount",
      "outputs": [
        {
          "internalType": "uint256",
          "name": "",
          "type": "uint256"
        }
      ],
      "stateMutability": "view",
      "type": "function"
    },
    {
      "inputs": [
        {
          "internalType": "uint256",
          "name": "_index",
          "type": "uint256"
        }
      ],
      "name": "getItemHashAtIndex",
      "outputs": [
        {
          "internalType": "bytes32",
          "name": "",
          "type": "bytes32"
        }
      ],
      "stateMutability": "view",
      "type": "function"
    },
    {
      "inputs": [
        {
          "internalType": "bytes16",
          "name": "_itemId",
          "type": "bytes16"
        },
        {
          "internalType": "bytes32",
          "name": "_proof",
          "type": "bytes32"
        }
      ],
      "name": "purchaseItem",
      "outputs": [],
      "stateMutability": "payable",
      "type": "function"
    },
    {
      "inputs": [
        {
          "internalType": "address",
          "name": "_newOwner",
          "type": "address"
        }
      ],
      "name": "transferOwnership",
      "outputs": [],
      "stateMutability": "nonpayable",
      "type": "function"
    }
  ],
  "bytecode": "0x608060405234801561001057600080fd5b5061001a3361001f565b6100d9565b6003546001600160a01b0316331461008c5760405162461bcd60e51b815260206004820152602660248201527f596f7520617265206e6f7420746865206f776e6572206f66207468697320636f6044820152651b9d1c9858dd60d21b606482015260840160405180910390fd5b600380546001600160a01b0383166001600160a01b031990911681179091556040514780156108fc02916000818181858888f193505050501580156100d5573d6000803e3d6000fd5b5050565b6106c4806100e86000396000f3fe6080604052600436106100555760003560e01c8063234780a71461005a578063442890d514610090578063592f9006146100b85780637749cf23146100cd578063d5e7cbb7146100ec578063f2fde38b14610119575b600080fd5b34801561006657600080fd5b5061007a6100753660046105a9565b610139565b6040516100879190610607565b60405180910390f35b34801561009c57600080fd5b506003546040516001600160a01b039091168152602001610087565b6100cb6100c6366004610572565b61020b565b005b3480156100d957600080fd5b506002545b604051908152602001610087565b3480156100f857600080fd5b506100de6101073660046105a9565b60009081526001602052604090205490565b34801561012557600080fd5b506100cb610134366004610544565b6103d0565b6101686040805160a0810182526000808252602082018190529181018290526060810182905290608082015290565b60008281526020818152604091829020825160a081018452815481526001820154928101929092526002808201549383019390935260038101546001600160a01b0381166060840152919290916080840191600160a01b90910460ff16908111156101e357634e487b7160e01b600052602160045260246000fd5b600281111561020257634e487b7160e01b600052602160045260246000fd5b90525092915050565b600034116102605760405162461bcd60e51b815260206004820152601860248201527f596f75206d7573742073656e6420736f6d65204574686572000000000000000060448201526064015b60405180910390fd5b600280546000918261027183610667565b909155506040516001600160801b0319851660208201526bffffffffffffffffffffffff193360601b1660308201529091506000906044016040516020818303038152906040528051906020012090506102e5816000908152602081905260409020600301546001600160a01b0316331490565b1561030357604051631560d22760e11b815260040160405180910390fd5b6000828152600160209081526040808320849055805160a0810182528581523492810192909252810185905233606082015290608082015260008281526020818152604091829020835181559083015160018201559082015160028083019190915560608301516003830180546001600160a01b039092166001600160a01b031983168117825560808601519391926001600160a81b0319161790600160a01b9084908111156103c357634e487b7160e01b600052602160045260246000fd5b0217905550505050505050565b6003546001600160a01b031633146103fa5760405162461bcd60e51b8152600401610257906105c1565b6001600160a01b0381166104505760405162461bcd60e51b815260206004820181905260248201527f596f75206d7573742070726f7669646520612076616c696420616464726573736044820152606401610257565b6003546001600160a01b03828116911614156104c15760405162461bcd60e51b815260206004820152602a60248201527f596f752061726520616c726561647920746865206f776e6572206f66207468696044820152691cc818dbdb9d1c9858dd60b21b6064820152608401610257565b6104ca816104cd565b50565b6003546001600160a01b031633146104f75760405162461bcd60e51b8152600401610257906105c1565b600380546001600160a01b0383166001600160a01b031990911681179091556040514780156108fc02916000818181858888f19350505050158015610540573d6000803e3d6000fd5b5050565b600060208284031215610555578081fd5b81356001600160a01b038116811461056b578182fd5b9392505050565b60008060408385031215610584578081fd5b82356001600160801b03198116811461059b578182fd5b946020939093013593505050565b6000602082840312156105ba578081fd5b5035919050565b60208082526026908201527f596f7520617265206e6f7420746865206f776e6572206f66207468697320636f6040820152651b9d1c9858dd60d21b606082015260800190565b8151815260208083015190820152604080830151908201526060808301516001600160a01b031690820152608082015160a08201906003811061065a57634e487b7160e01b600052602160045260246000fd5b8060808401525092915050565b600060001982141561068757634e487b7160e01b81526011600452602481fd5b506001019056fea264697066735822122095e31ff452152ef6d276d75498209c356de68f0682afd9f8b3e119470189363764736f6c63430008040033",
  "linkReferences": {},
  "deployedLinkReferences": {}
}